{
  "contractName": "AccountHero",
  "abi": [
    {
      "inputs": [],
      "payable": false,
      "stateMutability": "nonpayable",
      "type": "constructor",
      "signature": "constructor"
    },
    {
      "constant": true,
      "inputs": [
        {
          "internalType": "address",
          "name": "",
          "type": "address"
        },
        {
          "internalType": "uint256",
          "name": "",
          "type": "uint256"
        }
      ],
      "name": "creditors",
      "outputs": [
        {
          "internalType": "contract Fraction",
          "name": "",
          "type": "address"
        }
      ],
      "payable": false,
      "stateMutability": "view",
      "type": "function",
      "signature": "0xf39cada8"
    },
    {
      "constant": true,
      "inputs": [
        {
          "internalType": "address",
          "name": "",
          "type": "address"
        },
        {
          "internalType": "uint256",
          "name": "",
          "type": "uint256"
        }
      ],
      "name": "debtors",
      "outputs": [
        {
          "internalType": "contract Fraction",
          "name": "",
          "type": "address"
        }
      ],
      "payable": false,
      "stateMutability": "view",
      "type": "function",
      "signature": "0xb58a7fc6"
    },
    {
      "constant": true,
      "inputs": [],
      "name": "owner",
      "outputs": [
        {
          "internalType": "address",
          "name": "",
          "type": "address"
        }
      ],
      "payable": false,
      "stateMutability": "view",
      "type": "function",
      "signature": "0x8da5cb5b"
    },
    {
      "constant": false,
      "inputs": [
        {
          "internalType": "address",
          "name": "_debtor",
          "type": "address"
        },
        {
          "internalType": "uint256",
          "name": "_debt",
          "type": "uint256"
        }
      ],
      "name": "addFraction",
      "outputs": [
        {
          "internalType": "contract Fraction",
          "name": "",
          "type": "address"
        }
      ],
      "payable": false,
      "stateMutability": "nonpayable",
      "type": "function",
      "signature": "0x65a494e9"
    },
    {
      "constant": false,
      "inputs": [],
      "name": "fund",
      "outputs": [],
      "payable": true,
      "stateMutability": "payable",
      "type": "function",
      "signature": "0xb60d4288"
    },
    {
      "constant": false,
      "inputs": [
        {
          "internalType": "address",
          "name": "_fraction",
          "type": "address"
        }
      ],
      "name": "payFraction",
      "outputs": [],
      "payable": true,
      "stateMutability": "payable",
      "type": "function",
      "signature": "0x221c85ea"
    },
    {
      "constant": true,
      "inputs": [],
      "name": "getCredits",
      "outputs": [
        {
          "internalType": "contract Fraction[]",
          "name": "",
          "type": "address[]"
        }
      ],
      "payable": false,
      "stateMutability": "view",
      "type": "function",
      "signature": "0x823a71af"
    },
    {
      "constant": true,
      "inputs": [],
      "name": "getDebts",
      "outputs": [
        {
          "internalType": "contract Fraction[]",
          "name": "",
          "type": "address[]"
        }
      ],
      "payable": false,
      "stateMutability": "view",
      "type": "function",
      "signature": "0xc836ef2e"
    },
    {
      "constant": true,
      "inputs": [
        {
          "internalType": "address",
          "name": "_fraction",
          "type": "address"
        }
      ],
      "name": "getFractionDebt",
      "outputs": [
        {
          "internalType": "uint256",
          "name": "",
          "type": "uint256"
        }
      ],
      "payable": false,
      "stateMutability": "view",
      "type": "function",
      "signature": "0x68d673f5"
    },
    {
      "constant": true,
      "inputs": [
        {
          "internalType": "address",
          "name": "_fraction",
          "type": "address"
        }
      ],
      "name": "getFractionIsPaid",
      "outputs": [
        {
          "internalType": "bool",
          "name": "",
          "type": "bool"
        }
      ],
      "payable": false,
      "stateMutability": "view",
      "type": "function",
      "signature": "0xd4c645c2"
    },
    {
      "constant": true,
      "inputs": [
        {
          "internalType": "address",
          "name": "_fraction",
          "type": "address"
        }
      ],
      "name": "getFractionDebtor",
      "outputs": [
        {
          "internalType": "address",
          "name": "",
          "type": "address"
        }
      ],
      "payable": false,
      "stateMutability": "view",
      "type": "function",
      "signature": "0xebdda60c"
    }
  ],
  "bytecode": "0x608060405234801561001057600080fd5b50336000806101000a81548173ffffffffffffffffffffffffffffffffffffffff021916908373ffffffffffffffffffffffffffffffffffffffff160217905550611296806100606000396000f3fe6080604052600436106100b9576000357c010000000000000000000000000000000000000000000000000000000090048063b58a7fc611610081578063b58a7fc6146102c5578063b60d428814610360578063c836ef2e1461036a578063d4c645c2146103d6578063ebdda60c1461043f578063f39cada8146104d0576100b9565b8063221c85ea146100be57806365a494e91461010257806368d673f51461019d578063823a71af146102025780638da5cb5b1461026e575b600080fd5b610100600480360360208110156100d457600080fd5b81019080803573ffffffffffffffffffffffffffffffffffffffff16906020019092919050505061056b565b005b34801561010e57600080fd5b5061015b6004803603604081101561012557600080fd5b81019080803573ffffffffffffffffffffffffffffffffffffffff169060200190929190803590602001909291905050506108f5565b604051808273ffffffffffffffffffffffffffffffffffffffff1673ffffffffffffffffffffffffffffffffffffffff16815260200191505060405180910390f35b3480156101a957600080fd5b506101ec600480360360208110156101c057600080fd5b81019080803573ffffffffffffffffffffffffffffffffffffffff169060200190929190505050610ae6565b6040518082815260200191505060405180910390f35b34801561020e57600080fd5b50610217610b91565b6040518080602001828103825283818151815260200191508051906020019060200280838360005b8381101561025a57808201518184015260208101905061023f565b505050509050019250505060405180910390f35b34801561027a57600080fd5b50610283610c5c565b604051808273ffffffffffffffffffffffffffffffffffffffff1673ffffffffffffffffffffffffffffffffffffffff16815260200191505060405180910390f35b3480156102d157600080fd5b5061031e600480360360408110156102e857600080fd5b81019080803573ffffffffffffffffffffffffffffffffffffffff16906020019092919080359060200190929190505050610c81565b604051808273ffffffffffffffffffffffffffffffffffffffff1673ffffffffffffffffffffffffffffffffffffffff16815260200191505060405180910390f35b610368610ccc565b005b34801561037657600080fd5b5061037f610cce565b6040518080602001828103825283818151815260200191508051906020019060200280838360005b838110156103c25780820151818401526020810190506103a7565b505050509050019250505060405180910390f35b3480156103e257600080fd5b50610425600480360360208110156103f957600080fd5b81019080803573ffffffffffffffffffffffffffffffffffffffff169060200190929190505050610d99565b604051808215151515815260200191505060405180910390f35b34801561044b57600080fd5b5061048e6004803603602081101561046257600080fd5b81019080803573ffffffffffffffffffffffffffffffffffffffff169060200190929190505050610e44565b604051808273ffffffffffffffffffffffffffffffffffffffff1673ffffffffffffffffffffffffffffffffffffffff16815260200191505060405180910390f35b3480156104dc57600080fd5b50610529600480360360408110156104f357600080fd5b81019080803573ffffffffffffffffffffffffffffffffffffffff16906020019092919080359060200190929190505050610eef565b604051808273ffffffffffffffffffffffffffffffffffffffff1673ffffffffffffffffffffffffffffffffffffffff16815260200191505060405180910390f35b60008190508073ffffffffffffffffffffffffffffffffffffffff16630dca59c16040518163ffffffff167c010000000000000000000000000000000000000000000000000000000002815260040160206040518083038186803b1580156105d257600080fd5b505afa1580156105e6573d6000803e3d6000fd5b505050506040513d60208110156105fc57600080fd5b8101908080519060200190929190505050341015610682576040517f08c379a00000000000000000000000000000000000000000000000000000000081526004018080602001828103825260108152602001807f4e6f7420656e6f756768206d6f6e65790000000000000000000000000000000081525060200191505060405180910390fd5b8073ffffffffffffffffffffffffffffffffffffffff1663209ebc086040518163ffffffff167c010000000000000000000000000000000000000000000000000000000002815260040160206040518083038186803b1580156106e457600080fd5b505afa1580156106f8573d6000803e3d6000fd5b505050506040513d602081101561070e57600080fd5b810190808051906020019092919050505015610792576040517f08c379a00000000000000000000000000000000000000000000000000000000081526004018080602001828103825260158152602001807f4672616374696f6e20616c72656164792070616964000000000000000000000081525060200191505060405180910390fd5b8073ffffffffffffffffffffffffffffffffffffffff16638da5cb5b6040518163ffffffff167c010000000000000000000000000000000000000000000000000000000002815260040160206040518083038186803b1580156107f457600080fd5b505afa158015610808573d6000803e3d6000fd5b505050506040513d602081101561081e57600080fd5b810190808051906020019092919050505073ffffffffffffffffffffffffffffffffffffffff166108fc349081150290604051600060405180830381858888f19350505050158015610874573d6000803e3d6000fd5b508073ffffffffffffffffffffffffffffffffffffffff1663fab320e96040518163ffffffff167c0100000000000000000000000000000000000000000000000000000000028152600401600060405180830381600087803b1580156108d957600080fd5b505af11580156108ed573d6000803e3d6000fd5b505050505050565b60008033848460405161090790610f3a565b808473ffffffffffffffffffffffffffffffffffffffff1673ffffffffffffffffffffffffffffffffffffffff1681526020018373ffffffffffffffffffffffffffffffffffffffff1673ffffffffffffffffffffffffffffffffffffffff1681526020018281526020019350505050604051809103906000f080158015610993573d6000803e3d6000fd5b509050600160003373ffffffffffffffffffffffffffffffffffffffff1673ffffffffffffffffffffffffffffffffffffffff1681526020019081526020016000208190806001815401808255809150509060018203906000526020600020016000909192909190916101000a81548173ffffffffffffffffffffffffffffffffffffffff021916908373ffffffffffffffffffffffffffffffffffffffff16021790555050600260008573ffffffffffffffffffffffffffffffffffffffff1673ffffffffffffffffffffffffffffffffffffffff1681526020019081526020016000208190806001815401808255809150509060018203906000526020600020016000909192909190916101000a81548173ffffffffffffffffffffffffffffffffffffffff021916908373ffffffffffffffffffffffffffffffffffffffff160217905550508091505092915050565b6000808290508073ffffffffffffffffffffffffffffffffffffffff16630dca59c16040518163ffffffff167c010000000000000000000000000000000000000000000000000000000002815260040160206040518083038186803b158015610b4e57600080fd5b505afa158015610b62573d6000803e3d6000fd5b505050506040513d6020811015610b7857600080fd5b8101908080519060200190929190505050915050919050565b6060600160003373ffffffffffffffffffffffffffffffffffffffff1673ffffffffffffffffffffffffffffffffffffffff168152602001908152602001600020805480602002602001604051908101604052809291908181526020018280548015610c5257602002820191906000526020600020905b8160009054906101000a900473ffffffffffffffffffffffffffffffffffffffff1673ffffffffffffffffffffffffffffffffffffffff1681526020019060010190808311610c08575b5050505050905090565b6000809054906101000a900473ffffffffffffffffffffffffffffffffffffffff1681565b60026020528160005260406000208181548110610c9a57fe5b906000526020600020016000915091509054906101000a900473ffffffffffffffffffffffffffffffffffffffff1681565b565b6060600260003373ffffffffffffffffffffffffffffffffffffffff1673ffffffffffffffffffffffffffffffffffffffff168152602001908152602001600020805480602002602001604051908101604052809291908181526020018280548015610d8f57602002820191906000526020600020905b8160009054906101000a900473ffffffffffffffffffffffffffffffffffffffff1673ffffffffffffffffffffffffffffffffffffffff1681526020019060010190808311610d45575b5050505050905090565b6000808290508073ffffffffffffffffffffffffffffffffffffffff1663209ebc086040518163ffffffff167c010000000000000000000000000000000000000000000000000000000002815260040160206040518083038186803b158015610e0157600080fd5b505afa158015610e15573d6000803e3d6000fd5b505050506040513d6020811015610e2b57600080fd5b8101908080519060200190929190505050915050919050565b6000808290508073ffffffffffffffffffffffffffffffffffffffff16639cb64a2d6040518163ffffffff167c010000000000000000000000000000000000000000000000000000000002815260040160206040518083038186803b158015610eac57600080fd5b505afa158015610ec0573d6000803e3d6000fd5b505050506040513d6020811015610ed657600080fd5b8101908080519060200190929190505050915050919050565b60016020528160005260406000208181548110610f0857fe5b906000526020600020016000915091509054906101000a900473ffffffffffffffffffffffffffffffffffffffff1681565b61031a80610f488339019056fe608060405234801561001057600080fd5b5060405161031a38038061031a8339818101604052606081101561003357600080fd5b81019080805190602001909291908051906020019092919080519060200190929190505050826000806101000a81548173ffffffffffffffffffffffffffffffffffffffff021916908373ffffffffffffffffffffffffffffffffffffffff16021790555081600160006101000a81548173ffffffffffffffffffffffffffffffffffffffff021916908373ffffffffffffffffffffffffffffffffffffffff160217905550806002819055506000600360006101000a81548160ff02191690831515021790555050505061020d8061010d6000396000f3fe608060405234801561001057600080fd5b5060043610610074576000357c0100000000000000000000000000000000000000000000000000000000900480630dca59c114610079578063209ebc08146100975780638da5cb5b146100b95780639cb64a2d14610103578063fab320e91461014d575b600080fd5b610081610157565b6040518082815260200191505060405180910390f35b61009f61015d565b604051808215151515815260200191505060405180910390f35b6100c1610170565b604051808273ffffffffffffffffffffffffffffffffffffffff1673ffffffffffffffffffffffffffffffffffffffff16815260200191505060405180910390f35b61010b610195565b604051808273ffffffffffffffffffffffffffffffffffffffff1673ffffffffffffffffffffffffffffffffffffffff16815260200191505060405180910390f35b6101556101bb565b005b60025481565b600360009054906101000a900460ff1681565b6000809054906101000a900473ffffffffffffffffffffffffffffffffffffffff1681565b600160009054906101000a900473ffffffffffffffffffffffffffffffffffffffff1681565b6001600360006101000a81548160ff02191690831515021790555056fea265627a7a723158202bb03bcabc25bcdc3ba3748a610e71bc6ebf094131c542742127311588220d3664736f6c63430005110032a265627a7a7231582038c0bf46921c5dcaa0e43836b159e923e8fb3c79c47f75a7484ab8343715d79e64736f6c63430005110032",
  "source": "// SPDX-License-Identifier: MIT\npragma solidity <0.7.0;\n\ncontract Fraction {\n    address payable public owner;\n    address public debtor;\n    uint256 public debt;\n    bool public isPaid;\n\n    constructor(\n        address payable _owner,\n        address _debtor,\n        uint256 _debt\n    ) public {\n        owner = _owner;\n        debtor = _debtor;\n        debt = _debt; // wei\n        isPaid = false;\n    }\n\n    function setPaid() public {\n        isPaid = true;\n    }\n}\n\ncontract AccountHero {\n    address public owner;\n\n    mapping(address => Fraction[]) public creditors;\n    mapping(address => Fraction[]) public debtors;\n\n    constructor() public {\n        owner = msg.sender;\n    }\n\n    function addFraction(address _debtor, uint256 _debt)\n        public\n        returns (Fraction)\n    {\n        Fraction fraction = new Fraction(msg.sender, _debtor, _debt);\n\n        creditors[msg.sender].push(fraction);\n        debtors[_debtor].push(fraction);\n\n        return fraction;\n    }\n\n    function fund() public payable {}\n\n    function payFraction(address _fraction) public payable {\n        Fraction fraction = Fraction(_fraction);\n\n        require(msg.value >= fraction.debt(), \"Not enough money\");\n        require(!fraction.isPaid(), \"Fraction already paid\");\n        fraction.owner().transfer(msg.value);\n        fraction.setPaid();\n    }\n\n    function getCredits() public view returns (Fraction[] memory) {\n        return creditors[msg.sender];\n    }\n\n    function getDebts() public view returns (Fraction[] memory) {\n        return debtors[msg.sender];\n    }\n\n    function getFractionDebt(address _fraction) public view returns (uint256) {\n        Fraction fraction = Fraction(_fraction);\n        return fraction.debt();\n    }\n\n    function getFractionIsPaid(address _fraction) public view returns (bool) {\n        Fraction fraction = Fraction(_fraction);\n        return fraction.isPaid();\n    }\n\n    function getFractionDebtor(address _fraction) public view returns (address) {\n        Fraction fraction = Fraction(_fraction);\n        return fraction.debtor();\n    }\n}\n",
  "sourcePath": "/home/edu/github/account-hero/blockchain/truffle/contracts/AccountHero.sol",
  "compiler": {
    "name": "solc",
    "version": "0.5.17+commit.d19bba13.Emscripten.clang"
  },
  "schemaVersion": "3.0.0",
  "updatedAt": "2022-05-18T12:01:19.392Z",
  "devdoc": {
    "methods": {}
  },
  "userdoc": {
    "methods": {}
  }
}