{
  "contractName": "AccountHero",
  "abi": [
    {
      "inputs": [],
      "payable": false,
      "stateMutability": "nonpayable",
      "type": "constructor"
    },
    {
      "constant": true,
      "inputs": [
        {
          "internalType": "address",
          "name": "",
          "type": "address"
        },
        {
          "internalType": "uint256",
          "name": "",
          "type": "uint256"
        }
      ],
      "name": "creditors",
      "outputs": [
        {
          "internalType": "contract Fraction",
          "name": "",
          "type": "address"
        }
      ],
      "payable": false,
      "stateMutability": "view",
      "type": "function"
    },
    {
      "constant": true,
      "inputs": [
        {
          "internalType": "address",
          "name": "",
          "type": "address"
        },
        {
          "internalType": "uint256",
          "name": "",
          "type": "uint256"
        }
      ],
      "name": "debtors",
      "outputs": [
        {
          "internalType": "contract Fraction",
          "name": "",
          "type": "address"
        }
      ],
      "payable": false,
      "stateMutability": "view",
      "type": "function"
    },
    {
      "constant": true,
      "inputs": [],
      "name": "owner",
      "outputs": [
        {
          "internalType": "address",
          "name": "",
          "type": "address"
        }
      ],
      "payable": false,
      "stateMutability": "view",
      "type": "function"
    },
    {
      "constant": false,
      "inputs": [
        {
          "internalType": "address",
          "name": "_debtor",
          "type": "address"
        },
        {
          "internalType": "uint256",
          "name": "_debt",
          "type": "uint256"
        }
      ],
      "name": "addFraction",
      "outputs": [
        {
          "internalType": "contract Fraction",
          "name": "newFraction",
          "type": "address"
        }
      ],
      "payable": false,
      "stateMutability": "nonpayable",
      "type": "function"
    },
    {
      "constant": false,
      "inputs": [],
      "name": "fund",
      "outputs": [],
      "payable": true,
      "stateMutability": "payable",
      "type": "function"
    },
    {
      "constant": false,
      "inputs": [
        {
          "internalType": "address",
          "name": "_fraction",
          "type": "address"
        }
      ],
      "name": "payFraction",
      "outputs": [],
      "payable": true,
      "stateMutability": "payable",
      "type": "function"
    },
    {
      "constant": true,
      "inputs": [],
      "name": "getCredits",
      "outputs": [
        {
          "internalType": "contract Fraction[]",
          "name": "",
          "type": "address[]"
        }
      ],
      "payable": false,
      "stateMutability": "view",
      "type": "function"
    },
    {
      "constant": true,
      "inputs": [],
      "name": "getDebts",
      "outputs": [
        {
          "internalType": "contract Fraction[]",
          "name": "",
          "type": "address[]"
        }
      ],
      "payable": false,
      "stateMutability": "view",
      "type": "function"
    },
    {
      "constant": true,
      "inputs": [
        {
          "internalType": "address",
          "name": "_fraction",
          "type": "address"
        }
      ],
      "name": "getFractionDebt",
      "outputs": [
        {
          "internalType": "uint256",
          "name": "",
          "type": "uint256"
        }
      ],
      "payable": false,
      "stateMutability": "view",
      "type": "function"
    },
    {
      "constant": true,
      "inputs": [
        {
          "internalType": "address",
          "name": "_fraction",
          "type": "address"
        }
      ],
      "name": "getFractionIsPaid",
      "outputs": [
        {
          "internalType": "bool",
          "name": "",
          "type": "bool"
        }
      ],
      "payable": false,
      "stateMutability": "view",
      "type": "function"
    }
  ],
  "bytecode": "0x608060405234801561001057600080fd5b50336000806101000a81548173ffffffffffffffffffffffffffffffffffffffff021916908373ffffffffffffffffffffffffffffffffffffffff16021790555061114f806100606000396000f3fe6080604052600436106100ae576000357c010000000000000000000000000000000000000000000000000000000090048063b58a7fc611610076578063b58a7fc6146102ba578063b60d428814610355578063c836ef2e1461035f578063d4c645c2146103cb578063f39cada814610434576100ae565b8063221c85ea146100b357806365a494e9146100f757806368d673f514610192578063823a71af146101f75780638da5cb5b14610263575b600080fd5b6100f5600480360360208110156100c957600080fd5b81019080803573ffffffffffffffffffffffffffffffffffffffff1690602001909291905050506104cf565b005b34801561010357600080fd5b506101506004803603604081101561011a57600080fd5b81019080803573ffffffffffffffffffffffffffffffffffffffff16906020019092919080359060200190929190505050610859565b604051808273ffffffffffffffffffffffffffffffffffffffff1673ffffffffffffffffffffffffffffffffffffffff16815260200191505060405180910390f35b34801561019e57600080fd5b506101e1600480360360208110156101b557600080fd5b81019080803573ffffffffffffffffffffffffffffffffffffffff169060200190929190505050610a4a565b6040518082815260200191505060405180910390f35b34801561020357600080fd5b5061020c610af5565b6040518080602001828103825283818151815260200191508051906020019060200280838360005b8381101561024f578082015181840152602081019050610234565b505050509050019250505060405180910390f35b34801561026f57600080fd5b50610278610bc0565b604051808273ffffffffffffffffffffffffffffffffffffffff1673ffffffffffffffffffffffffffffffffffffffff16815260200191505060405180910390f35b3480156102c657600080fd5b50610313600480360360408110156102dd57600080fd5b81019080803573ffffffffffffffffffffffffffffffffffffffff16906020019092919080359060200190929190505050610be5565b604051808273ffffffffffffffffffffffffffffffffffffffff1673ffffffffffffffffffffffffffffffffffffffff16815260200191505060405180910390f35b61035d610c30565b005b34801561036b57600080fd5b50610374610c32565b6040518080602001828103825283818151815260200191508051906020019060200280838360005b838110156103b757808201518184015260208101905061039c565b505050509050019250505060405180910390f35b3480156103d757600080fd5b5061041a600480360360208110156103ee57600080fd5b81019080803573ffffffffffffffffffffffffffffffffffffffff169060200190929190505050610cfd565b604051808215151515815260200191505060405180910390f35b34801561044057600080fd5b5061048d6004803603604081101561045757600080fd5b81019080803573ffffffffffffffffffffffffffffffffffffffff16906020019092919080359060200190929190505050610da8565b604051808273ffffffffffffffffffffffffffffffffffffffff1673ffffffffffffffffffffffffffffffffffffffff16815260200191505060405180910390f35b60008190508073ffffffffffffffffffffffffffffffffffffffff16630dca59c16040518163ffffffff167c010000000000000000000000000000000000000000000000000000000002815260040160206040518083038186803b15801561053657600080fd5b505afa15801561054a573d6000803e3d6000fd5b505050506040513d602081101561056057600080fd5b81019080805190602001909291905050503410156105e6576040517f08c379a00000000000000000000000000000000000000000000000000000000081526004018080602001828103825260108152602001807f4e6f7420656e6f756768206d6f6e65790000000000000000000000000000000081525060200191505060405180910390fd5b8073ffffffffffffffffffffffffffffffffffffffff1663209ebc086040518163ffffffff167c010000000000000000000000000000000000000000000000000000000002815260040160206040518083038186803b15801561064857600080fd5b505afa15801561065c573d6000803e3d6000fd5b505050506040513d602081101561067257600080fd5b8101908080519060200190929190505050156106f6576040517f08c379a00000000000000000000000000000000000000000000000000000000081526004018080602001828103825260158152602001807f4672616374696f6e20616c72656164792070616964000000000000000000000081525060200191505060405180910390fd5b8073ffffffffffffffffffffffffffffffffffffffff16638da5cb5b6040518163ffffffff167c010000000000000000000000000000000000000000000000000000000002815260040160206040518083038186803b15801561075857600080fd5b505afa15801561076c573d6000803e3d6000fd5b505050506040513d602081101561078257600080fd5b810190808051906020019092919050505073ffffffffffffffffffffffffffffffffffffffff166108fc349081150290604051600060405180830381858888f193505050501580156107d8573d6000803e3d6000fd5b508073ffffffffffffffffffffffffffffffffffffffff1663fab320e96040518163ffffffff167c0100000000000000000000000000000000000000000000000000000000028152600401600060405180830381600087803b15801561083d57600080fd5b505af1158015610851573d6000803e3d6000fd5b505050505050565b60008033848460405161086b90610df3565b808473ffffffffffffffffffffffffffffffffffffffff1673ffffffffffffffffffffffffffffffffffffffff1681526020018373ffffffffffffffffffffffffffffffffffffffff1673ffffffffffffffffffffffffffffffffffffffff1681526020018281526020019350505050604051809103906000f0801580156108f7573d6000803e3d6000fd5b509050600160003373ffffffffffffffffffffffffffffffffffffffff1673ffffffffffffffffffffffffffffffffffffffff1681526020019081526020016000208190806001815401808255809150509060018203906000526020600020016000909192909190916101000a81548173ffffffffffffffffffffffffffffffffffffffff021916908373ffffffffffffffffffffffffffffffffffffffff16021790555050600260008573ffffffffffffffffffffffffffffffffffffffff1673ffffffffffffffffffffffffffffffffffffffff1681526020019081526020016000208190806001815401808255809150509060018203906000526020600020016000909192909190916101000a81548173ffffffffffffffffffffffffffffffffffffffff021916908373ffffffffffffffffffffffffffffffffffffffff160217905550508091505092915050565b6000808290508073ffffffffffffffffffffffffffffffffffffffff16630dca59c16040518163ffffffff167c010000000000000000000000000000000000000000000000000000000002815260040160206040518083038186803b158015610ab257600080fd5b505afa158015610ac6573d6000803e3d6000fd5b505050506040513d6020811015610adc57600080fd5b8101908080519060200190929190505050915050919050565b6060600160003373ffffffffffffffffffffffffffffffffffffffff1673ffffffffffffffffffffffffffffffffffffffff168152602001908152602001600020805480602002602001604051908101604052809291908181526020018280548015610bb657602002820191906000526020600020905b8160009054906101000a900473ffffffffffffffffffffffffffffffffffffffff1673ffffffffffffffffffffffffffffffffffffffff1681526020019060010190808311610b6c575b5050505050905090565b6000809054906101000a900473ffffffffffffffffffffffffffffffffffffffff1681565b60026020528160005260406000208181548110610bfe57fe5b906000526020600020016000915091509054906101000a900473ffffffffffffffffffffffffffffffffffffffff1681565b565b6060600260003373ffffffffffffffffffffffffffffffffffffffff1673ffffffffffffffffffffffffffffffffffffffff168152602001908152602001600020805480602002602001604051908101604052809291908181526020018280548015610cf357602002820191906000526020600020905b8160009054906101000a900473ffffffffffffffffffffffffffffffffffffffff1673ffffffffffffffffffffffffffffffffffffffff1681526020019060010190808311610ca9575b5050505050905090565b6000808290508073ffffffffffffffffffffffffffffffffffffffff1663209ebc086040518163ffffffff167c010000000000000000000000000000000000000000000000000000000002815260040160206040518083038186803b158015610d6557600080fd5b505afa158015610d79573d6000803e3d6000fd5b505050506040513d6020811015610d8f57600080fd5b8101908080519060200190929190505050915050919050565b60016020528160005260406000208181548110610dc157fe5b906000526020600020016000915091509054906101000a900473ffffffffffffffffffffffffffffffffffffffff1681565b61031a80610e018339019056fe608060405234801561001057600080fd5b5060405161031a38038061031a8339818101604052606081101561003357600080fd5b81019080805190602001909291908051906020019092919080519060200190929190505050826000806101000a81548173ffffffffffffffffffffffffffffffffffffffff021916908373ffffffffffffffffffffffffffffffffffffffff16021790555081600160006101000a81548173ffffffffffffffffffffffffffffffffffffffff021916908373ffffffffffffffffffffffffffffffffffffffff160217905550806002819055506000600360006101000a81548160ff02191690831515021790555050505061020d8061010d6000396000f3fe608060405234801561001057600080fd5b5060043610610074576000357c0100000000000000000000000000000000000000000000000000000000900480630dca59c114610079578063209ebc08146100975780638da5cb5b146100b95780639cb64a2d14610103578063fab320e91461014d575b600080fd5b610081610157565b6040518082815260200191505060405180910390f35b61009f61015d565b604051808215151515815260200191505060405180910390f35b6100c1610170565b604051808273ffffffffffffffffffffffffffffffffffffffff1673ffffffffffffffffffffffffffffffffffffffff16815260200191505060405180910390f35b61010b610195565b604051808273ffffffffffffffffffffffffffffffffffffffff1673ffffffffffffffffffffffffffffffffffffffff16815260200191505060405180910390f35b6101556101bb565b005b60025481565b600360009054906101000a900460ff1681565b6000809054906101000a900473ffffffffffffffffffffffffffffffffffffffff1681565b600160009054906101000a900473ffffffffffffffffffffffffffffffffffffffff1681565b6001600360006101000a81548160ff02191690831515021790555056fea265627a7a723158209a1db8ae7ec85ea8e93893c8e9f4aede51abd70f3071d2af5486e78e2966d3a164736f6c63430005110032a265627a7a723158204c9ec7efa69b9ab93e8c40a480b10931d19f19ab684a7bf5e772897d2ff32af464736f6c63430005110032",
  "source": "// SPDX-License-Identifier: MIT\npragma solidity <0.7.0;\n\ncontract Fraction {\n    address payable public owner;\n    address public debtor;\n    uint256 public debt;\n    bool public isPaid;\n\n    constructor(\n        address payable _owner,\n        address _debtor,\n        uint256 _debt\n    ) public {\n        owner = _owner;\n        debtor = _debtor;\n        debt = _debt; // wei\n        isPaid = false;\n    }\n\n    function setPaid() public {\n        isPaid = true;\n    }\n}\n\ncontract AccountHero {\n    address public owner;\n\n    mapping(address => Fraction[]) public creditors;\n    mapping(address => Fraction[]) public debtors;\n\n    constructor() public {\n        owner = msg.sender;\n    }\n\n    function addFraction(address _debtor, uint256 _debt)\n        public\n        returns (Fraction newFraction)\n    {\n        Fraction fraction = new Fraction(msg.sender, _debtor, _debt);\n\n        creditors[msg.sender].push(fraction);\n        debtors[_debtor].push(fraction);\n\n        return fraction;\n    }\n\n    function fund() public payable {}\n\n    function payFraction(address _fraction) public payable {\n        Fraction fraction = Fraction(_fraction);\n\n        require(msg.value >= fraction.debt(), \"Not enough money\");\n        require(!fraction.isPaid(), \"Fraction already paid\");\n        fraction.owner().transfer(msg.value);\n        fraction.setPaid();\n    }\n\n    function getCredits() public view returns (Fraction[] memory) {\n        return creditors[msg.sender];\n    }\n\n    function getDebts() public view returns (Fraction[] memory) {\n        return debtors[msg.sender];\n    }\n\n    function getFractionDebt(address _fraction) public view returns (uint256) {\n        Fraction fraction = Fraction(_fraction);\n        return fraction.debt();\n    }\n\n    function getFractionIsPaid(address _fraction) public view returns (bool) {\n        Fraction fraction = Fraction(_fraction);\n        return fraction.isPaid();\n    }\n}\n",
  "sourcePath": "/home/edu/github/account-hero/blockchain/truffle/contracts/AccountHero.sol",
  "compiler": {
    "name": "solc",
    "version": "0.5.17+commit.d19bba13.Emscripten.clang"
  },
  "schemaVersion": "3.0.0",
  "updatedAt": "2022-05-15T17:48:30.063Z",
  "devdoc": {
    "methods": {}
  },
  "userdoc": {
    "methods": {}
  }
}