{
  "contractName": "Fraction",
  "abi": [
    {
      "inputs": [
        {
          "internalType": "address payable",
          "name": "_owner",
          "type": "address"
        },
        {
          "internalType": "address",
          "name": "_debtor",
          "type": "address"
        },
        {
          "internalType": "uint256",
          "name": "_debt",
          "type": "uint256"
        }
      ],
      "payable": false,
      "stateMutability": "nonpayable",
      "type": "constructor"
    },
    {
      "constant": true,
      "inputs": [],
      "name": "debt",
      "outputs": [
        {
          "internalType": "uint256",
          "name": "",
          "type": "uint256"
        }
      ],
      "payable": false,
      "stateMutability": "view",
      "type": "function"
    },
    {
      "constant": true,
      "inputs": [],
      "name": "debtor",
      "outputs": [
        {
          "internalType": "address",
          "name": "",
          "type": "address"
        }
      ],
      "payable": false,
      "stateMutability": "view",
      "type": "function"
    },
    {
      "constant": true,
      "inputs": [],
      "name": "isPaid",
      "outputs": [
        {
          "internalType": "bool",
          "name": "",
          "type": "bool"
        }
      ],
      "payable": false,
      "stateMutability": "view",
      "type": "function"
    },
    {
      "constant": true,
      "inputs": [],
      "name": "owner",
      "outputs": [
        {
          "internalType": "address payable",
          "name": "",
          "type": "address"
        }
      ],
      "payable": false,
      "stateMutability": "view",
      "type": "function"
    },
    {
      "constant": false,
      "inputs": [],
      "name": "setPaid",
      "outputs": [],
      "payable": false,
      "stateMutability": "nonpayable",
      "type": "function"
    }
  ],
  "bytecode": "0x608060405234801561001057600080fd5b5060405161031a38038061031a8339818101604052606081101561003357600080fd5b81019080805190602001909291908051906020019092919080519060200190929190505050826000806101000a81548173ffffffffffffffffffffffffffffffffffffffff021916908373ffffffffffffffffffffffffffffffffffffffff16021790555081600160006101000a81548173ffffffffffffffffffffffffffffffffffffffff021916908373ffffffffffffffffffffffffffffffffffffffff160217905550806002819055506000600360006101000a81548160ff02191690831515021790555050505061020d8061010d6000396000f3fe608060405234801561001057600080fd5b5060043610610074576000357c0100000000000000000000000000000000000000000000000000000000900480630dca59c114610079578063209ebc08146100975780638da5cb5b146100b95780639cb64a2d14610103578063fab320e91461014d575b600080fd5b610081610157565b6040518082815260200191505060405180910390f35b61009f61015d565b604051808215151515815260200191505060405180910390f35b6100c1610170565b604051808273ffffffffffffffffffffffffffffffffffffffff1673ffffffffffffffffffffffffffffffffffffffff16815260200191505060405180910390f35b61010b610195565b604051808273ffffffffffffffffffffffffffffffffffffffff1673ffffffffffffffffffffffffffffffffffffffff16815260200191505060405180910390f35b6101556101bb565b005b60025481565b600360009054906101000a900460ff1681565b6000809054906101000a900473ffffffffffffffffffffffffffffffffffffffff1681565b600160009054906101000a900473ffffffffffffffffffffffffffffffffffffffff1681565b6001600360006101000a81548160ff02191690831515021790555056fea265627a7a723158209a1db8ae7ec85ea8e93893c8e9f4aede51abd70f3071d2af5486e78e2966d3a164736f6c63430005110032",
  "source": "// SPDX-License-Identifier: MIT\npragma solidity <0.7.0;\n\ncontract Fraction {\n    address payable public owner;\n    address public debtor;\n    uint256 public debt;\n    bool public isPaid;\n\n    constructor(\n        address payable _owner,\n        address _debtor,\n        uint256 _debt\n    ) public {\n        owner = _owner;\n        debtor = _debtor;\n        debt = _debt; // wei\n        isPaid = false;\n    }\n\n    function setPaid() public {\n        isPaid = true;\n    }\n}\n\ncontract AccountHero {\n    address public owner;\n\n    mapping(address => Fraction[]) public creditors;\n    mapping(address => Fraction[]) public debtors;\n\n    constructor() public {\n        owner = msg.sender;\n    }\n\n    function addFraction(address _debtor, uint256 _debt)\n        public\n        returns (Fraction newFraction)\n    {\n        Fraction fraction = new Fraction(msg.sender, _debtor, _debt);\n\n        creditors[msg.sender].push(fraction);\n        debtors[_debtor].push(fraction);\n\n        return fraction;\n    }\n\n    function fund() public payable {}\n\n    function payFraction(address _fraction) public payable {\n        Fraction fraction = Fraction(_fraction);\n\n        require(msg.value >= fraction.debt(), \"Not enough money\");\n        require(!fraction.isPaid(), \"Fraction already paid\");\n        fraction.owner().transfer(msg.value);\n        fraction.setPaid();\n    }\n\n    function getCredits() public view returns (Fraction[] memory) {\n        return creditors[msg.sender];\n    }\n\n    function getDebts() public view returns (Fraction[] memory) {\n        return debtors[msg.sender];\n    }\n\n    function getFractionDebt(address _fraction) public view returns (uint256) {\n        Fraction fraction = Fraction(_fraction);\n        return fraction.debt();\n    }\n\n    function getFractionIsPaid(address _fraction) public view returns (bool) {\n        Fraction fraction = Fraction(_fraction);\n        return fraction.isPaid();\n    }\n}\n",
  "sourcePath": "/home/edu/github/account-hero/blockchain/truffle/contracts/AccountHero.sol",
  "compiler": {
    "name": "solc",
    "version": "0.5.17+commit.d19bba13.Emscripten.clang"
  },
  "schemaVersion": "3.0.0",
  "updatedAt": "2022-05-15T17:48:30.058Z",
  "devdoc": {
    "methods": {}
  },
  "userdoc": {
    "methods": {}
  }
}