{
  "contractName": "AccountHero",
  "abi": [
    {
      "inputs": [],
      "payable": false,
      "stateMutability": "nonpayable",
      "type": "constructor",
      "signature": "constructor"
    },
    {
      "constant": true,
      "inputs": [
        {
          "internalType": "address",
          "name": "",
          "type": "address"
        },
        {
          "internalType": "uint256",
          "name": "",
          "type": "uint256"
        }
      ],
      "name": "creditors",
      "outputs": [
        {
          "internalType": "contract Fraction",
          "name": "",
          "type": "address"
        }
      ],
      "payable": false,
      "stateMutability": "view",
      "type": "function",
      "signature": "0xf39cada8"
    },
    {
      "constant": true,
      "inputs": [
        {
          "internalType": "address",
          "name": "",
          "type": "address"
        },
        {
          "internalType": "uint256",
          "name": "",
          "type": "uint256"
        }
      ],
      "name": "debtors",
      "outputs": [
        {
          "internalType": "contract Fraction",
          "name": "",
          "type": "address"
        }
      ],
      "payable": false,
      "stateMutability": "view",
      "type": "function",
      "signature": "0xb58a7fc6"
    },
    {
      "constant": true,
      "inputs": [],
      "name": "owner",
      "outputs": [
        {
          "internalType": "address",
          "name": "",
          "type": "address"
        }
      ],
      "payable": false,
      "stateMutability": "view",
      "type": "function",
      "signature": "0x8da5cb5b"
    },
    {
      "constant": false,
      "inputs": [
        {
          "internalType": "address",
          "name": "_debtor",
          "type": "address"
        },
        {
          "internalType": "uint256",
          "name": "_debt",
          "type": "uint256"
        }
      ],
      "name": "addFraction",
      "outputs": [
        {
          "internalType": "contract Fraction",
          "name": "newFraction",
          "type": "address"
        }
      ],
      "payable": false,
      "stateMutability": "nonpayable",
      "type": "function",
      "signature": "0x65a494e9"
    },
    {
      "constant": false,
      "inputs": [],
      "name": "fund",
      "outputs": [],
      "payable": true,
      "stateMutability": "payable",
      "type": "function",
      "signature": "0xb60d4288"
    },
    {
      "constant": false,
      "inputs": [
        {
          "internalType": "address",
          "name": "_fraction",
          "type": "address"
        }
      ],
      "name": "payFraction",
      "outputs": [],
      "payable": true,
      "stateMutability": "payable",
      "type": "function",
      "signature": "0x221c85ea"
    },
    {
      "constant": false,
      "inputs": [
        {
          "internalType": "address",
          "name": "_fraction",
          "type": "address"
        }
      ],
      "name": "getFraction",
      "outputs": [
        {
          "internalType": "bytes",
          "name": "",
          "type": "bytes"
        }
      ],
      "payable": false,
      "stateMutability": "nonpayable",
      "type": "function",
      "signature": "0x9bb61285"
    },
    {
      "constant": true,
      "inputs": [],
      "name": "getCredits",
      "outputs": [
        {
          "internalType": "contract Fraction[]",
          "name": "",
          "type": "address[]"
        }
      ],
      "payable": false,
      "stateMutability": "view",
      "type": "function",
      "signature": "0x823a71af"
    },
    {
      "constant": true,
      "inputs": [],
      "name": "getDebts",
      "outputs": [
        {
          "internalType": "contract Fraction[]",
          "name": "",
          "type": "address[]"
        }
      ],
      "payable": false,
      "stateMutability": "view",
      "type": "function",
      "signature": "0xc836ef2e"
    },
    {
      "constant": true,
      "inputs": [
        {
          "internalType": "address",
          "name": "_fraction",
          "type": "address"
        }
      ],
      "name": "getFractionDebt",
      "outputs": [
        {
          "internalType": "uint256",
          "name": "",
          "type": "uint256"
        }
      ],
      "payable": false,
      "stateMutability": "view",
      "type": "function",
      "signature": "0x68d673f5"
    },
    {
      "constant": true,
      "inputs": [
        {
          "internalType": "address",
          "name": "_fraction",
          "type": "address"
        }
      ],
      "name": "getFractionIsPaid",
      "outputs": [
        {
          "internalType": "bool",
          "name": "",
          "type": "bool"
        }
      ],
      "payable": false,
      "stateMutability": "view",
      "type": "function",
      "signature": "0xd4c645c2"
    }
  ],
  "bytecode": "0x608060405234801561001057600080fd5b50336000806101000a81548173ffffffffffffffffffffffffffffffffffffffff021916908373ffffffffffffffffffffffffffffffffffffffff16021790555060003373ab8483f64d9c6d1ecf9b849ae677dd3315835cb2600160405161007790610266565b808473ffffffffffffffffffffffffffffffffffffffff1673ffffffffffffffffffffffffffffffffffffffff1681526020018373ffffffffffffffffffffffffffffffffffffffff1673ffffffffffffffffffffffffffffffffffffffff1681526020018281526020019350505050604051809103906000f080158015610103573d6000803e3d6000fd5b509050600160003373ffffffffffffffffffffffffffffffffffffffff1673ffffffffffffffffffffffffffffffffffffffff1681526020019081526020016000208190806001815401808255809150509060018203906000526020600020016000909192909190916101000a81548173ffffffffffffffffffffffffffffffffffffffff021916908373ffffffffffffffffffffffffffffffffffffffff160217905550506002600073ab8483f64d9c6d1ecf9b849ae677dd3315835cb273ffffffffffffffffffffffffffffffffffffffff1673ffffffffffffffffffffffffffffffffffffffff1681526020019081526020016000208190806001815401808255809150509060018203906000526020600020016000909192909190916101000a81548173ffffffffffffffffffffffffffffffffffffffff021916908373ffffffffffffffffffffffffffffffffffffffff1602179055505050610273565b61031a8061151083390190565b61128e806102826000396000f3fe6080604052600436106100b9576000357c0100000000000000000000000000000000000000000000000000000000900480639bb61285116100815780639bb61285146102c5578063b58a7fc61461038f578063b60d42881461042a578063c836ef2e14610434578063d4c645c2146104a0578063f39cada814610509576100b9565b8063221c85ea146100be57806365a494e91461010257806368d673f51461019d578063823a71af146102025780638da5cb5b1461026e575b600080fd5b610100600480360360208110156100d457600080fd5b81019080803573ffffffffffffffffffffffffffffffffffffffff1690602001909291905050506105a4565b005b34801561010e57600080fd5b5061015b6004803603604081101561012557600080fd5b81019080803573ffffffffffffffffffffffffffffffffffffffff1690602001909291908035906020019092919050505061092e565b604051808273ffffffffffffffffffffffffffffffffffffffff1673ffffffffffffffffffffffffffffffffffffffff16815260200191505060405180910390f35b3480156101a957600080fd5b506101ec600480360360208110156101c057600080fd5b81019080803573ffffffffffffffffffffffffffffffffffffffff169060200190929190505050610b1f565b6040518082815260200191505060405180910390f35b34801561020e57600080fd5b50610217610bca565b6040518080602001828103825283818151815260200191508051906020019060200280838360005b8381101561025a57808201518184015260208101905061023f565b505050509050019250505060405180910390f35b34801561027a57600080fd5b50610283610c95565b604051808273ffffffffffffffffffffffffffffffffffffffff1673ffffffffffffffffffffffffffffffffffffffff16815260200191505060405180910390f35b3480156102d157600080fd5b50610314600480360360208110156102e857600080fd5b81019080803573ffffffffffffffffffffffffffffffffffffffff169060200190929190505050610cba565b6040518080602001828103825283818151815260200191508051906020019080838360005b83811015610354578082015181840152602081019050610339565b50505050905090810190601f1680156103815780820380516001836020036101000a031916815260200191505b509250505060405180910390f35b34801561039b57600080fd5b506103e8600480360360408110156103b257600080fd5b81019080803573ffffffffffffffffffffffffffffffffffffffff16906020019092919080359060200190929190505050610d24565b604051808273ffffffffffffffffffffffffffffffffffffffff1673ffffffffffffffffffffffffffffffffffffffff16815260200191505060405180910390f35b610432610d6f565b005b34801561044057600080fd5b50610449610d71565b6040518080602001828103825283818151815260200191508051906020019060200280838360005b8381101561048c578082015181840152602081019050610471565b505050509050019250505060405180910390f35b3480156104ac57600080fd5b506104ef600480360360208110156104c357600080fd5b81019080803573ffffffffffffffffffffffffffffffffffffffff169060200190929190505050610e3c565b604051808215151515815260200191505060405180910390f35b34801561051557600080fd5b506105626004803603604081101561052c57600080fd5b81019080803573ffffffffffffffffffffffffffffffffffffffff16906020019092919080359060200190929190505050610ee7565b604051808273ffffffffffffffffffffffffffffffffffffffff1673ffffffffffffffffffffffffffffffffffffffff16815260200191505060405180910390f35b60008190508073ffffffffffffffffffffffffffffffffffffffff16630dca59c16040518163ffffffff167c010000000000000000000000000000000000000000000000000000000002815260040160206040518083038186803b15801561060b57600080fd5b505afa15801561061f573d6000803e3d6000fd5b505050506040513d602081101561063557600080fd5b81019080805190602001909291905050503410156106bb576040517f08c379a00000000000000000000000000000000000000000000000000000000081526004018080602001828103825260108152602001807f4e6f7420656e6f756768206d6f6e65790000000000000000000000000000000081525060200191505060405180910390fd5b8073ffffffffffffffffffffffffffffffffffffffff1663209ebc086040518163ffffffff167c010000000000000000000000000000000000000000000000000000000002815260040160206040518083038186803b15801561071d57600080fd5b505afa158015610731573d6000803e3d6000fd5b505050506040513d602081101561074757600080fd5b8101908080519060200190929190505050156107cb576040517f08c379a00000000000000000000000000000000000000000000000000000000081526004018080602001828103825260158152602001807f4672616374696f6e20616c72656164792070616964000000000000000000000081525060200191505060405180910390fd5b8073ffffffffffffffffffffffffffffffffffffffff16638da5cb5b6040518163ffffffff167c010000000000000000000000000000000000000000000000000000000002815260040160206040518083038186803b15801561082d57600080fd5b505afa158015610841573d6000803e3d6000fd5b505050506040513d602081101561085757600080fd5b810190808051906020019092919050505073ffffffffffffffffffffffffffffffffffffffff166108fc349081150290604051600060405180830381858888f193505050501580156108ad573d6000803e3d6000fd5b508073ffffffffffffffffffffffffffffffffffffffff1663fab320e96040518163ffffffff167c0100000000000000000000000000000000000000000000000000000000028152600401600060405180830381600087803b15801561091257600080fd5b505af1158015610926573d6000803e3d6000fd5b505050505050565b60008033848460405161094090610f32565b808473ffffffffffffffffffffffffffffffffffffffff1673ffffffffffffffffffffffffffffffffffffffff1681526020018373ffffffffffffffffffffffffffffffffffffffff1673ffffffffffffffffffffffffffffffffffffffff1681526020018281526020019350505050604051809103906000f0801580156109cc573d6000803e3d6000fd5b509050600160003373ffffffffffffffffffffffffffffffffffffffff1673ffffffffffffffffffffffffffffffffffffffff1681526020019081526020016000208190806001815401808255809150509060018203906000526020600020016000909192909190916101000a81548173ffffffffffffffffffffffffffffffffffffffff021916908373ffffffffffffffffffffffffffffffffffffffff16021790555050600260008573ffffffffffffffffffffffffffffffffffffffff1673ffffffffffffffffffffffffffffffffffffffff1681526020019081526020016000208190806001815401808255809150509060018203906000526020600020016000909192909190916101000a81548173ffffffffffffffffffffffffffffffffffffffff021916908373ffffffffffffffffffffffffffffffffffffffff160217905550508091505092915050565b6000808290508073ffffffffffffffffffffffffffffffffffffffff16630dca59c16040518163ffffffff167c010000000000000000000000000000000000000000000000000000000002815260040160206040518083038186803b158015610b8757600080fd5b505afa158015610b9b573d6000803e3d6000fd5b505050506040513d6020811015610bb157600080fd5b8101908080519060200190929190505050915050919050565b6060600160003373ffffffffffffffffffffffffffffffffffffffff1673ffffffffffffffffffffffffffffffffffffffff168152602001908152602001600020805480602002602001604051908101604052809291908181526020018280548015610c8b57602002820191906000526020600020905b8160009054906101000a900473ffffffffffffffffffffffffffffffffffffffff1673ffffffffffffffffffffffffffffffffffffffff1681526020019060010190808311610c41575b5050505050905090565b6000809054906101000a900473ffffffffffffffffffffffffffffffffffffffff1681565b6060600082905080604051602001808273ffffffffffffffffffffffffffffffffffffffff1673ffffffffffffffffffffffffffffffffffffffff166c01000000000000000000000000028152601401915050604051602081830303815290604052915050919050565b60026020528160005260406000208181548110610d3d57fe5b906000526020600020016000915091509054906101000a900473ffffffffffffffffffffffffffffffffffffffff1681565b565b6060600260003373ffffffffffffffffffffffffffffffffffffffff1673ffffffffffffffffffffffffffffffffffffffff168152602001908152602001600020805480602002602001604051908101604052809291908181526020018280548015610e3257602002820191906000526020600020905b8160009054906101000a900473ffffffffffffffffffffffffffffffffffffffff1673ffffffffffffffffffffffffffffffffffffffff1681526020019060010190808311610de8575b5050505050905090565b6000808290508073ffffffffffffffffffffffffffffffffffffffff1663209ebc086040518163ffffffff167c010000000000000000000000000000000000000000000000000000000002815260040160206040518083038186803b158015610ea457600080fd5b505afa158015610eb8573d6000803e3d6000fd5b505050506040513d6020811015610ece57600080fd5b8101908080519060200190929190505050915050919050565b60016020528160005260406000208181548110610f0057fe5b906000526020600020016000915091509054906101000a900473ffffffffffffffffffffffffffffffffffffffff1681565b61031a80610f408339019056fe608060405234801561001057600080fd5b5060405161031a38038061031a8339818101604052606081101561003357600080fd5b81019080805190602001909291908051906020019092919080519060200190929190505050826000806101000a81548173ffffffffffffffffffffffffffffffffffffffff021916908373ffffffffffffffffffffffffffffffffffffffff16021790555081600160006101000a81548173ffffffffffffffffffffffffffffffffffffffff021916908373ffffffffffffffffffffffffffffffffffffffff160217905550806002819055506000600360006101000a81548160ff02191690831515021790555050505061020d8061010d6000396000f3fe608060405234801561001057600080fd5b5060043610610074576000357c0100000000000000000000000000000000000000000000000000000000900480630dca59c114610079578063209ebc08146100975780638da5cb5b146100b95780639cb64a2d14610103578063fab320e91461014d575b600080fd5b610081610157565b6040518082815260200191505060405180910390f35b61009f61015d565b604051808215151515815260200191505060405180910390f35b6100c1610170565b604051808273ffffffffffffffffffffffffffffffffffffffff1673ffffffffffffffffffffffffffffffffffffffff16815260200191505060405180910390f35b61010b610195565b604051808273ffffffffffffffffffffffffffffffffffffffff1673ffffffffffffffffffffffffffffffffffffffff16815260200191505060405180910390f35b6101556101bb565b005b60025481565b600360009054906101000a900460ff1681565b6000809054906101000a900473ffffffffffffffffffffffffffffffffffffffff1681565b600160009054906101000a900473ffffffffffffffffffffffffffffffffffffffff1681565b6001600360006101000a81548160ff02191690831515021790555056fea265627a7a72315820e45300e7b1cb0c48e37c57b7f2fab553c6caeddf89fe703e9e26565baed6782764736f6c63430005110032a265627a7a72315820d77082806c5940bed4ecb48df2574925592bc96f51c00e403a2b5e14e7a3ddb864736f6c63430005110032608060405234801561001057600080fd5b5060405161031a38038061031a8339818101604052606081101561003357600080fd5b81019080805190602001909291908051906020019092919080519060200190929190505050826000806101000a81548173ffffffffffffffffffffffffffffffffffffffff021916908373ffffffffffffffffffffffffffffffffffffffff16021790555081600160006101000a81548173ffffffffffffffffffffffffffffffffffffffff021916908373ffffffffffffffffffffffffffffffffffffffff160217905550806002819055506000600360006101000a81548160ff02191690831515021790555050505061020d8061010d6000396000f3fe608060405234801561001057600080fd5b5060043610610074576000357c0100000000000000000000000000000000000000000000000000000000900480630dca59c114610079578063209ebc08146100975780638da5cb5b146100b95780639cb64a2d14610103578063fab320e91461014d575b600080fd5b610081610157565b6040518082815260200191505060405180910390f35b61009f61015d565b604051808215151515815260200191505060405180910390f35b6100c1610170565b604051808273ffffffffffffffffffffffffffffffffffffffff1673ffffffffffffffffffffffffffffffffffffffff16815260200191505060405180910390f35b61010b610195565b604051808273ffffffffffffffffffffffffffffffffffffffff1673ffffffffffffffffffffffffffffffffffffffff16815260200191505060405180910390f35b6101556101bb565b005b60025481565b600360009054906101000a900460ff1681565b6000809054906101000a900473ffffffffffffffffffffffffffffffffffffffff1681565b600160009054906101000a900473ffffffffffffffffffffffffffffffffffffffff1681565b6001600360006101000a81548160ff02191690831515021790555056fea265627a7a72315820e45300e7b1cb0c48e37c57b7f2fab553c6caeddf89fe703e9e26565baed6782764736f6c63430005110032",
  "source": "// SPDX-License-Identifier: MIT\npragma solidity <0.7.0;\n\n// pragma solidity >=0.4.21 <0.6.0;\n\n// import \"./Fraction.sol\";\n\ncontract Fraction {\n    address payable public owner;\n    address public debtor;\n    uint256 public debt;\n    bool public isPaid;\n\n    constructor(\n        address payable _owner,\n        address _debtor,\n        uint256 _debt\n    ) public {\n        owner = _owner;\n        debtor = _debtor;\n        debt = _debt; // wei\n        isPaid = false;\n    }\n\n    function setPaid() public {\n        isPaid = true;\n    }    \n}\n\ncontract AccountHero {\n    address public owner;\n\n    mapping(address => Fraction[]) public creditors;\n    mapping(address => Fraction[]) public debtors;\n\n    constructor() public {\n        owner = msg.sender;\n        Fraction f = new Fraction(\n            msg.sender,\n            address(0xAb8483F64d9C6d1EcF9b849Ae677dD3315835cb2),\n            1\n        );\n        creditors[msg.sender].push(f);\n        debtors[address(0xAb8483F64d9C6d1EcF9b849Ae677dD3315835cb2)].push(f);\n        // Fraction f = new Fraction(msg.sender, 1);\n        // fractions.push(f);\n    }\n\n    function addFraction(address _debtor, uint256 _debt)\n        public\n        returns (Fraction newFraction)\n    {\n        Fraction fraction = new Fraction(msg.sender, _debtor, _debt);\n\n        creditors[msg.sender].push(fraction);\n        debtors[_debtor].push(fraction);\n\n        return fraction;\n    }\n\n    function fund() public payable {}\n\n    function payFraction(address _fraction) public payable {\n        Fraction fraction = Fraction(_fraction);\n\n        require(msg.value >= fraction.debt(), \"Not enough money\");\n        require(!fraction.isPaid(), \"Fraction already paid\");\n        fraction.owner().transfer(msg.value);\n        fraction.setPaid();\n    }\n\n    function getFraction(address _fraction) public returns (bytes memory) {\n        Fraction fraction = Fraction(_fraction);\n        // bytes memory fractionString = abi.encodePacked(fraction);\n        return abi.encodePacked(fraction);\n        // return fraction;\n    }\n\n    function getCredits() public view returns (Fraction[] memory) {\n        return creditors[msg.sender];\n    }\n\n    function getDebts() public view returns (Fraction[] memory) {\n        return debtors[msg.sender];\n    }\n\n    function getFractionDebt(address _fraction) public view returns (uint256) {\n        Fraction fraction = Fraction(_fraction);\n        return fraction.debt();\n    }\n\n    function getFractionIsPaid(address _fraction) public view returns (bool) {\n        Fraction fraction = Fraction(_fraction);\n        return fraction.isPaid();\n    }\n}\n",
  "sourcePath": "/home/edu/github/account-hero/truffle/contracts/AccountHero.sol",
  "compiler": {
    "name": "solc",
    "version": "0.5.17+commit.d19bba13.Emscripten.clang"
  },
  "schemaVersion": "3.0.0",
  "updatedAt": "2022-05-15T16:36:27.492Z",
  "devdoc": {
    "methods": {}
  },
  "userdoc": {
    "methods": {}
  }
}