{
  "contractName": "Fraction",
  "abi": [
    {
      "inputs": [
        {
          "internalType": "address payable",
          "name": "_owner",
          "type": "address"
        },
        {
          "internalType": "address",
          "name": "_debtor",
          "type": "address"
        },
        {
          "internalType": "uint256",
          "name": "_debt",
          "type": "uint256"
        }
      ],
      "payable": false,
      "stateMutability": "nonpayable",
      "type": "constructor"
    },
    {
      "constant": true,
      "inputs": [],
      "name": "debt",
      "outputs": [
        {
          "internalType": "uint256",
          "name": "",
          "type": "uint256"
        }
      ],
      "payable": false,
      "stateMutability": "view",
      "type": "function"
    },
    {
      "constant": true,
      "inputs": [],
      "name": "debtor",
      "outputs": [
        {
          "internalType": "address",
          "name": "",
          "type": "address"
        }
      ],
      "payable": false,
      "stateMutability": "view",
      "type": "function"
    },
    {
      "constant": true,
      "inputs": [],
      "name": "isPaid",
      "outputs": [
        {
          "internalType": "bool",
          "name": "",
          "type": "bool"
        }
      ],
      "payable": false,
      "stateMutability": "view",
      "type": "function"
    },
    {
      "constant": true,
      "inputs": [],
      "name": "owner",
      "outputs": [
        {
          "internalType": "address payable",
          "name": "",
          "type": "address"
        }
      ],
      "payable": false,
      "stateMutability": "view",
      "type": "function"
    },
    {
      "constant": true,
      "inputs": [],
      "name": "getOwner",
      "outputs": [
        {
          "internalType": "address payable",
          "name": "",
          "type": "address"
        }
      ],
      "payable": false,
      "stateMutability": "view",
      "type": "function"
    },
    {
      "constant": true,
      "inputs": [],
      "name": "getDebt",
      "outputs": [
        {
          "internalType": "uint256",
          "name": "",
          "type": "uint256"
        }
      ],
      "payable": false,
      "stateMutability": "view",
      "type": "function"
    },
    {
      "constant": true,
      "inputs": [],
      "name": "getIsPaid",
      "outputs": [
        {
          "internalType": "bool",
          "name": "",
          "type": "bool"
        }
      ],
      "payable": false,
      "stateMutability": "view",
      "type": "function"
    },
    {
      "constant": false,
      "inputs": [],
      "name": "setPaid",
      "outputs": [],
      "payable": false,
      "stateMutability": "nonpayable",
      "type": "function"
    }
  ],
  "bytecode": "0x608060405234801561001057600080fd5b5060405161041f38038061041f8339818101604052606081101561003357600080fd5b81019080805190602001909291908051906020019092919080519060200190929190505050826000806101000a81548173ffffffffffffffffffffffffffffffffffffffff021916908373ffffffffffffffffffffffffffffffffffffffff16021790555081600160006101000a81548173ffffffffffffffffffffffffffffffffffffffff021916908373ffffffffffffffffffffffffffffffffffffffff160217905550806002819055506000600360006101000a81548160ff0219169083151502179055505050506103128061010d6000396000f3fe608060405234801561001057600080fd5b50600436106100a5576000357c0100000000000000000000000000000000000000000000000000000000900480638da5cb5b116100785780638da5cb5b146101525780639cb64a2d1461019c578063f520e7ae146101e6578063fab320e914610208576100a5565b80630dca59c1146100aa57806314a6bf0f146100c8578063209ebc08146100e6578063893d20e814610108575b600080fd5b6100b2610212565b6040518082815260200191505060405180910390f35b6100d0610218565b6040518082815260200191505060405180910390f35b6100ee610222565b604051808215151515815260200191505060405180910390f35b610110610235565b604051808273ffffffffffffffffffffffffffffffffffffffff1673ffffffffffffffffffffffffffffffffffffffff16815260200191505060405180910390f35b61015a61025e565b604051808273ffffffffffffffffffffffffffffffffffffffff1673ffffffffffffffffffffffffffffffffffffffff16815260200191505060405180910390f35b6101a4610283565b604051808273ffffffffffffffffffffffffffffffffffffffff1673ffffffffffffffffffffffffffffffffffffffff16815260200191505060405180910390f35b6101ee6102a9565b604051808215151515815260200191505060405180910390f35b6102106102c0565b005b60025481565b6000600254905090565b600360009054906101000a900460ff1681565b60008060009054906101000a900473ffffffffffffffffffffffffffffffffffffffff16905090565b6000809054906101000a900473ffffffffffffffffffffffffffffffffffffffff1681565b600160009054906101000a900473ffffffffffffffffffffffffffffffffffffffff1681565b6000600360009054906101000a900460ff16905090565b6001600360006101000a81548160ff02191690831515021790555056fea265627a7a72315820429eac426eaf57e6217d1b00ea7656ef210d7fe8af6a066b94f3cbf72dbda3e864736f6c63430005110032",
  "source": "// SPDX-License-Identifier: MIT\npragma solidity <0.7.0;\n\ncontract Fraction {\n    address payable public owner;\n    address public debtor;\n    uint public debt;\n    bool public isPaid;\n\n    // event fractionPaid(address indexed _owner, address indexed _debtor, uint _debt);\n    // event newFraction(address indexed _owner, address indexed _debtor, uint _debt, bool _isPaid);\n\n\n    constructor(address payable _owner, address _debtor, uint _debt) public {\n        owner = _owner;\n        debtor = _debtor;\n        debt = _debt;\n        isPaid = false;\n    }\n\n    function getOwner() public view returns (address payable) {\n        return owner;\n    }\n\n    function getDebt() public view returns (uint) {\n        return debt;\n    }\n\n    function getIsPaid() public view returns (bool) {\n        return isPaid;\n    }\n\n    function setPaid() public {\n        isPaid = true;\n    }\n\n}",
  "sourcePath": "/home/edu/github/account-hero/truffle/contracts/Fraction.sol",
  "compiler": {
    "name": "solc",
    "version": "0.5.17+commit.d19bba13.Emscripten.clang"
  },
  "schemaVersion": "3.0.0",
  "updatedAt": "2022-05-15T16:36:27.494Z",
  "devdoc": {
    "methods": {}
  },
  "userdoc": {
    "methods": {}
  }
}